{
  "_format": "hh-sol-artifact-1",
  "contractName": "EIP712Example",
  "sourceName": "contracts/EIP712Example.sol",
  "abi": [
    {
      "inputs": [],
      "stateMutability": "nonpayable",
      "type": "constructor"
    },
    {
      "inputs": [
        {
          "internalType": "uint256",
          "name": "chainId",
          "type": "uint256"
        },
        {
          "internalType": "address",
          "name": "verifyingContract",
          "type": "address"
        },
        {
          "internalType": "bytes32",
          "name": "salt",
          "type": "bytes32"
        }
      ],
      "name": "VerifyFail",
      "type": "error"
    },
    {
      "anonymous": false,
      "inputs": [
        {
          "indexed": true,
          "internalType": "address",
          "name": "_from",
          "type": "address"
        }
      ],
      "name": "AddressVerified",
      "type": "event"
    },
    {
      "inputs": [
        {
          "components": [
            {
              "internalType": "string",
              "name": "message",
              "type": "string"
            },
            {
              "internalType": "uint256",
              "name": "value",
              "type": "uint256"
            },
            {
              "internalType": "address",
              "name": "from",
              "type": "address"
            },
            {
              "internalType": "address",
              "name": "to",
              "type": "address"
            }
          ],
          "internalType": "struct ExampleMessage",
          "name": "message",
          "type": "tuple"
        },
        {
          "internalType": "uint8",
          "name": "v",
          "type": "uint8"
        },
        {
          "internalType": "bytes32",
          "name": "r",
          "type": "bytes32"
        },
        {
          "internalType": "bytes32",
          "name": "s",
          "type": "bytes32"
        }
      ],
      "name": "verifyMessage",
      "outputs": [],
      "stateMutability": "nonpayable",
      "type": "function"
    },
    {
      "stateMutability": "payable",
      "type": "receive"
    }
  ],
  "bytecode": "0x608060405234801561001057600080fd5b506040805160e081018252600d60a082019081526c4549503731324578616d706c6560981b60c083015281528151808301835260018152603160f81b60208281019190915282015246918101919091523060608201526a1c1cd95d591bcb5d195e1d60aa1b60808201526100839061008b565b600055610133565b60007fd87cd6ef79d4e2b95e15ce8abf732db51ec771f1ca2edccf22a46c729ac56472826000015180519060200120836020015180519060200120846040015185606001518660800151604051602001610116969594939291909586526020860194909452604085019290925260608401526001600160a01b0316608083015260a082015260c00190565b604051602081830303815290604052805190602001209050919050565b61052f806101426000396000f3fe6080604052600436106100225760003560e01c80639fd7124e1461002e57600080fd5b3661002957005b600080fd5b34801561003a57600080fd5b5061004e6100493660046103a8565b610050565b005b6000805461005d86610287565b60405161190160f01b60208201526022810192909252604282015260620160408051601f1981840301815291815281516020928301206000818152600190935291205490915060ff16156100ee5760405162461bcd60e51b815260206004820152601360248201527214da59db985d1d5c99481b9bdd081d985b1a59606a1b60448201526064015b60405180910390fd5b6000471161013e5760405162461bcd60e51b815260206004820152601f60248201527f416d6f756e74206578636565647320636f6e74726163742062616c616e63650060448201526064016100e5565b6040805160008082526020820180845284905260ff871692820192909252606081018590526080810184905260019060a0016020604051602081039080840390855afa158015610192573d6000803e3d6000fd5b50505060206040510351905085604001516001600160a01b0316816001600160a01b0316146101f05760405163263b34e960e11b81524660048201523060248201526a1c1cd95d591bcb5d195e1d60aa1b60448201526064016100e5565b6000828152600160208181526040808420805460ff191690931790925560608901519089015191516001600160a01b039091169282156108fc02929190818181858888f1935050505015801561024a573d6000803e3d6000fd5b506040516001600160a01b038216907fa73de5a14448d1018a70f5aef0b1eb8f27129ccb6857389295be0104a4fe059f90600090a2505050505050565b60006040518060800160405280604481526020016104b6604491398051602091820120835180519083012084830151604080870151606080890151835197880196909652918601939093528401526001600160a01b0390811660808401521660a082015260c001604051602081830303815290604052805190602001209050919050565b634e487b7160e01b600052604160045260246000fd5b6040516080810167ffffffffffffffff811182821017156103445761034461030b565b60405290565b604051601f8201601f1916810167ffffffffffffffff811182821017156103735761037361030b565b604052919050565b80356001600160a01b038116811461039257600080fd5b919050565b803560ff8116811461039257600080fd5b600080600080608085870312156103be57600080fd5b843567ffffffffffffffff808211156103d657600080fd5b90860190608082890312156103ea57600080fd5b6103f2610321565b82358281111561040157600080fd5b8301601f81018a1361041257600080fd5b80356020848211156104265761042661030b565b610438601f8301601f1916820161034a565b94508185528b8183850101111561044e57600080fd5b8181840182870137600081838701015284845280860135818501526104756040870161037b565b60408501526104866060870161037b565b6060850152839950610499818c01610397565b999c999b5050505060408801359760600135969550505050505056fe4578616d706c654d65737361676528737472696e67206d6573736167652c75696e743235362076616c75652c616464726573732066726f6d2c6164647265737320746f29a26469706673582212208492e09bb7e6e4d8b820ecb56174e4eb61599efe3e2d2c0f095d69aa2584c43564736f6c63430008180033",
  "linkReferences": {},
  "deployedLinkReferences": {}
}