{
  "_format": "hh-sol-artifact-1",
  "contractName": "ExpenseAccount",
  "sourceName": "contracts/ExpenseAccount.sol",
  "abi": [
    {
      "inputs": [
        {
          "internalType": "uint256",
          "name": "amount",
          "type": "uint256"
        }
      ],
      "name": "AuthorizedAmountExceeded",
      "type": "error"
    },
    {
      "inputs": [],
      "name": "EnforcedPause",
      "type": "error"
    },
    {
      "inputs": [],
      "name": "ExpectedPause",
      "type": "error"
    },
    {
      "inputs": [],
      "name": "InvalidInitialization",
      "type": "error"
    },
    {
      "inputs": [],
      "name": "NotInitializing",
      "type": "error"
    },
    {
      "inputs": [
        {
          "internalType": "address",
          "name": "owner",
          "type": "address"
        }
      ],
      "name": "OwnableInvalidOwner",
      "type": "error"
    },
    {
      "inputs": [
        {
          "internalType": "address",
          "name": "account",
          "type": "address"
        }
      ],
      "name": "OwnableUnauthorizedAccount",
      "type": "error"
    },
    {
      "inputs": [],
      "name": "ReentrancyGuardReentrantCall",
      "type": "error"
    },
    {
      "inputs": [
        {
          "internalType": "address",
          "name": "expected",
          "type": "address"
        },
        {
          "internalType": "address",
          "name": "received",
          "type": "address"
        }
      ],
      "name": "UnauthorizedAccess",
      "type": "error"
    },
    {
      "anonymous": false,
      "inputs": [],
      "name": "EIP712DomainChanged",
      "type": "event"
    },
    {
      "anonymous": false,
      "inputs": [
        {
          "indexed": false,
          "internalType": "uint64",
          "name": "version",
          "type": "uint64"
        }
      ],
      "name": "Initialized",
      "type": "event"
    },
    {
      "anonymous": false,
      "inputs": [
        {
          "indexed": true,
          "internalType": "address",
          "name": "depositor",
          "type": "address"
        },
        {
          "indexed": false,
          "internalType": "uint256",
          "name": "amount",
          "type": "uint256"
        }
      ],
      "name": "NewDeposit",
      "type": "event"
    },
    {
      "anonymous": false,
      "inputs": [
        {
          "indexed": true,
          "internalType": "address",
          "name": "withdrawer",
          "type": "address"
        },
        {
          "indexed": false,
          "internalType": "uint256",
          "name": "amount",
          "type": "uint256"
        }
      ],
      "name": "NewWithdrawal",
      "type": "event"
    },
    {
      "anonymous": false,
      "inputs": [
        {
          "indexed": true,
          "internalType": "address",
          "name": "previousOwner",
          "type": "address"
        },
        {
          "indexed": true,
          "internalType": "address",
          "name": "newOwner",
          "type": "address"
        }
      ],
      "name": "OwnershipTransferred",
      "type": "event"
    },
    {
      "anonymous": false,
      "inputs": [
        {
          "indexed": false,
          "internalType": "address",
          "name": "account",
          "type": "address"
        }
      ],
      "name": "Paused",
      "type": "event"
    },
    {
      "anonymous": false,
      "inputs": [
        {
          "indexed": false,
          "internalType": "address",
          "name": "account",
          "type": "address"
        }
      ],
      "name": "Unpaused",
      "type": "event"
    },
    {
      "inputs": [],
      "name": "eip712Domain",
      "outputs": [
        {
          "internalType": "bytes1",
          "name": "fields",
          "type": "bytes1"
        },
        {
          "internalType": "string",
          "name": "name",
          "type": "string"
        },
        {
          "internalType": "string",
          "name": "version",
          "type": "string"
        },
        {
          "internalType": "uint256",
          "name": "chainId",
          "type": "uint256"
        },
        {
          "internalType": "address",
          "name": "verifyingContract",
          "type": "address"
        },
        {
          "internalType": "bytes32",
          "name": "salt",
          "type": "bytes32"
        },
        {
          "internalType": "uint256[]",
          "name": "extensions",
          "type": "uint256[]"
        }
      ],
      "stateMutability": "view",
      "type": "function"
    },
    {
      "inputs": [],
      "name": "getBalance",
      "outputs": [
        {
          "internalType": "uint256",
          "name": "",
          "type": "uint256"
        }
      ],
      "stateMutability": "view",
      "type": "function"
    },
    {
      "inputs": [],
      "name": "initialize",
      "outputs": [],
      "stateMutability": "nonpayable",
      "type": "function"
    },
    {
      "inputs": [],
      "name": "owner",
      "outputs": [
        {
          "internalType": "address",
          "name": "",
          "type": "address"
        }
      ],
      "stateMutability": "view",
      "type": "function"
    },
    {
      "inputs": [],
      "name": "pause",
      "outputs": [],
      "stateMutability": "nonpayable",
      "type": "function"
    },
    {
      "inputs": [],
      "name": "paused",
      "outputs": [
        {
          "internalType": "bool",
          "name": "",
          "type": "bool"
        }
      ],
      "stateMutability": "view",
      "type": "function"
    },
    {
      "inputs": [],
      "name": "renounceOwnership",
      "outputs": [],
      "stateMutability": "nonpayable",
      "type": "function"
    },
    {
      "inputs": [
        {
          "internalType": "address",
          "name": "newOwner",
          "type": "address"
        }
      ],
      "name": "transferOwnership",
      "outputs": [],
      "stateMutability": "nonpayable",
      "type": "function"
    },
    {
      "inputs": [],
      "name": "unpause",
      "outputs": [],
      "stateMutability": "nonpayable",
      "type": "function"
    },
    {
      "inputs": [
        {
          "internalType": "uint256",
          "name": "amount",
          "type": "uint256"
        },
        {
          "components": [
            {
              "internalType": "address",
              "name": "approvedAddress",
              "type": "address"
            },
            {
              "internalType": "enum ExpenseAccount.BudgetType",
              "name": "budgetType",
              "type": "uint8"
            },
            {
              "internalType": "uint256",
              "name": "value",
              "type": "uint256"
            },
            {
              "internalType": "uint256",
              "name": "expiry",
              "type": "uint256"
            }
          ],
          "internalType": "struct ExpenseAccount.BudgetLimit",
          "name": "limit",
          "type": "tuple"
        },
        {
          "internalType": "uint8",
          "name": "v",
          "type": "uint8"
        },
        {
          "internalType": "bytes32",
          "name": "r",
          "type": "bytes32"
        },
        {
          "internalType": "bytes32",
          "name": "s",
          "type": "bytes32"
        }
      ],
      "name": "withdraw",
      "outputs": [],
      "stateMutability": "nonpayable",
      "type": "function"
    },
    {
      "stateMutability": "payable",
      "type": "receive"
    }
  ],
  "bytecode": "0x608060405234801561001057600080fd5b5061124a806100206000396000f3fe6080604052600436106100955760003560e01c80638129fc1c116100595780638129fc1c146101725780638456cb591461018757806384b0196e1461019c5780638da5cb5b146101c4578063f2fde38b146101f157600080fd5b806312065fe0146100d65780633f4ba83a146100f65780635c975abb1461010d57806368b078571461013d578063715018a61461015d57600080fd5b366100d15760405134815233907f2cb77763bc1e8490c1a904905c4d74b4269919aca114464f4bb4d911e60de3649060200160405180910390a2005b600080fd5b3480156100e257600080fd5b506040514781526020015b60405180910390f35b34801561010257600080fd5b5061010b610211565b005b34801561011957600080fd5b506000805160206111f58339815191525460ff1660405190151581526020016100ed565b34801561014957600080fd5b5061010b610158366004610e32565b610223565b34801561016957600080fd5b5061010b610669565b34801561017e57600080fd5b5061010b61067b565b34801561019357600080fd5b5061010b6107d6565b3480156101a857600080fd5b506101b16107e6565b6040516100ed9796959493929190610edb565b3480156101d057600080fd5b506101d9610892565b6040516001600160a01b0390911681526020016100ed565b3480156101fd57600080fd5b5061010b61020c366004610f74565b6108c0565b6102196108fe565b610221610930565b565b61022b610990565b6102386020850185610f74565b6001600160a01b0316336001600160a01b03161461029d5760405162461bcd60e51b815260206004820152601760248201527f57697468647261776572206e6f7420617070726f76656400000000000000000060448201526064015b60405180910390fd5b60006102a76109c1565b6102b0866109d0565b60405161190160f01b60208201526022810192909252604282015260620160408051601f198184030181528282528051602091820120600080855291840180845281905260ff88169284019290925260608301869052608083018590529092509060019060a0016020604051602081039080840390855afa158015610339573d6000803e3d6000fd5b50505060206040510351905061034d610892565b6001600160a01b0316816001600160a01b03161461039a5761036d610892565b604051634116c50f60e01b81526001600160a01b0391821660048201529082166024820152604401610294565b85606001354211156103e65760405162461bcd60e51b8152602060048201526015602482015274105d5d1a1bdc9a5e985d1a5bdb88195e1c1a5c9959605a1b6044820152606401610294565b60006103f86040880160208901610fba565b600281111561040957610409610fa4565b036104dc5760008281526020819052604090819020549087013510156104715760405162461bcd60e51b815260206004820152601960248201527f5472616e73616374696f6e206c696d69742072656163686564000000000000006044820152606401610294565b600082815260208190526040812080549161048b83610ff1565b9091555061049e90506020870187610f74565b6001600160a01b03166108fc889081150290604051600060405180830381858888f193505050501580156104d6573d6000803e3d6000fd5b50610611565b60016104ee6040880160208901610fba565b60028111156104ff576104ff610fa4565b03610576578560400135876000808581526020019081526020016000206001015461052a919061100a565b11156105695760008281526020819052604090206001015461054d90889061100a565b604051638a2457c760e01b815260040161029491815260200190565b61049e6020870187610f74565b85604001358711156105ca5760405162461bcd60e51b815260206004820152601a60248201527f417574686f72697a656420616d6f756e742065786365656465640000000000006044820152606401610294565b6105d76020870187610f74565b6001600160a01b03166108fc889081150290604051600060405180830381858888f1935050505015801561060f573d6000803e3d6000fd5b505b61061e6020870187610f74565b6001600160a01b03167f6e2e05fb6a732995d6952d9158ca6b75f11cc6bf5a4af943aa1eb475a249440b8860405161065891815260200190565b60405180910390a250505050505050565b6106716108fe565b6102216000610a4b565b7ff0c57e16840df040f15088dc2f81fe391c3923bec73e23a9662efc9c229c6a008054600160401b810460ff16159067ffffffffffffffff166000811580156106c15750825b905060008267ffffffffffffffff1660011480156106de5750303b155b9050811580156106ec575080155b1561070a5760405163f92ee8a960e01b815260040160405180910390fd5b845467ffffffffffffffff19166001178555831561073457845460ff60401b1916600160401b1785555b61073d33610abc565b6107896040518060400160405280601181526020017010d390d15e1c195b9cd95058d8dbdd5b9d607a1b815250604051806040016040528060018152602001603160f81b815250610acd565b83156107cf57845460ff60401b19168555604051600181527fc7f505b2f371ae2175ee4913f4499e1f2633a7b5936321eed1cdaeb6115181d29060200160405180910390a15b5050505050565b6107de6108fe565b610221610ae3565b600060608082808083816000805160206111d5833981519152805490915015801561081357506001810154155b6108575760405162461bcd60e51b81526020600482015260156024820152741152540dcc4c8e88155b9a5b9a5d1a585b1a5e9959605a1b6044820152606401610294565b61085f610b2c565b610867610bef565b60408051600080825260208201909252600f60f81b9c939b5091995046985030975095509350915050565b7f9016d09d72d40fdae2fd8ceac6b6234c7706214fd39c1cd1e609a0528c199300546001600160a01b031690565b6108c86108fe565b6001600160a01b0381166108f257604051631e4fbdf760e01b815260006004820152602401610294565b6108fb81610a4b565b50565b33610907610892565b6001600160a01b0316146102215760405163118cdaa760e01b8152336004820152602401610294565b610938610c2e565b6000805160206111f5833981519152805460ff191681557f5db9ee0a495bf2e6ff9c91a7834c1ba4fdd244a5e8aa4e537bd38aeae4b073aa335b6040516001600160a01b03909116815260200160405180910390a150565b6000805160206111f58339815191525460ff16156102215760405163d93c066560e01b815260040160405180910390fd5b60006109cb610c5e565b905090565b60007f22a4a275070c491b4f22d948d5ecc0ba895dc0f2816390f6ce6dd8bab66bda9a610a006020840184610f74565b610a106040850160208601610fba565b84604001358560600135604051602001610a2e959493929190611039565b604051602081830303815290604052805190602001209050919050565b7f9016d09d72d40fdae2fd8ceac6b6234c7706214fd39c1cd1e609a0528c19930080546001600160a01b031981166001600160a01b03848116918217845560405192169182907f8be0079c531659141344cd1fd0a4f28419497f9722a3daafe3b4186f6b6457e090600090a3505050565b610ac4610cd2565b6108fb81610d1b565b610ad5610cd2565b610adf8282610d23565b5050565b610aeb610990565b6000805160206111f5833981519152805460ff191660011781557f62e78cea01bee320cd4e420270b5ea74000d11b0c9f74754ebdbfc544b05a25833610972565b7fa16a46d94261c7517cc8ff89f61c0ce93598e3c849801011dee649a6a557d10280546060916000805160206111d583398151915291610b6b90611089565b80601f0160208091040260200160405190810160405280929190818152602001828054610b9790611089565b8015610be45780601f10610bb957610100808354040283529160200191610be4565b820191906000526020600020905b815481529060010190602001808311610bc757829003601f168201915b505050505091505090565b7fa16a46d94261c7517cc8ff89f61c0ce93598e3c849801011dee649a6a557d10380546060916000805160206111d583398151915291610b6b90611089565b6000805160206111f58339815191525460ff1661022157604051638dfc202b60e01b815260040160405180910390fd5b60007f8b73c3c69bb8fe3d512ecc4cf759cc79239f7b179b0ffacaa9a75d522b39400f610c89610d84565b610c91610dee565b60408051602081019490945283019190915260608201524660808201523060a082015260c00160405160208183030381529060405280519060200120905090565b7ff0c57e16840df040f15088dc2f81fe391c3923bec73e23a9662efc9c229c6a0054600160401b900460ff1661022157604051631afcd79f60e31b815260040160405180910390fd5b6108c8610cd2565b610d2b610cd2565b6000805160206111d58339815191527fa16a46d94261c7517cc8ff89f61c0ce93598e3c849801011dee649a6a557d102610d658482611114565b5060038101610d748382611114565b5060008082556001909101555050565b60006000805160206111d583398151915281610d9e610b2c565b805190915015610db657805160209091012092915050565b81548015610dc5579392505050565b7fc5d2460186f7233c927e7db2dcc703c0e500b653ca82273b7bfad8045d85a470935050505090565b60006000805160206111d583398151915281610e08610bef565b805190915015610e2057805160209091012092915050565b60018201548015610dc5579392505050565b6000806000806000858703610100811215610e4c57600080fd5b863595506080601f1982011215610e6257600080fd5b5060208601935060a086013560ff81168114610e7d57600080fd5b9497939650939460c0810135945060e0013592915050565b6000815180845260005b81811015610ebb57602081850181015186830182015201610e9f565b506000602082860101526020601f19601f83011685010191505092915050565b60ff60f81b881681526000602060e06020840152610efc60e084018a610e95565b8381036040850152610f0e818a610e95565b606085018990526001600160a01b038816608086015260a0850187905284810360c08601528551808252602080880193509091019060005b81811015610f6257835183529284019291840191600101610f46565b50909c9b505050505050505050505050565b600060208284031215610f8657600080fd5b81356001600160a01b0381168114610f9d57600080fd5b9392505050565b634e487b7160e01b600052602160045260246000fd5b600060208284031215610fcc57600080fd5b813560038110610f9d57600080fd5b634e487b7160e01b600052601160045260246000fd5b60006001820161100357611003610fdb565b5060010190565b8082018082111561101d5761101d610fdb565b92915050565b634e487b7160e01b600052604160045260246000fd5b8581526001600160a01b038516602082015260a081016003851061106d57634e487b7160e01b600052602160045260246000fd5b8460408301528360608301528260808301529695505050505050565b600181811c9082168061109d57607f821691505b6020821081036110bd57634e487b7160e01b600052602260045260246000fd5b50919050565b601f82111561110f576000816000526020600020601f850160051c810160208610156110ec5750805b601f850160051c820191505b8181101561110b578281556001016110f8565b5050505b505050565b815167ffffffffffffffff81111561112e5761112e611023565b6111428161113c8454611089565b846110c3565b602080601f831160018114611177576000841561115f5750858301515b600019600386901b1c1916600185901b17855561110b565b600085815260208120601f198616915b828110156111a657888601518255948401946001909101908401611187565b50858210156111c45787850151600019600388901b60f8161c191681555b5050505050600190811b0190555056fea16a46d94261c7517cc8ff89f61c0ce93598e3c849801011dee649a6a557d100cd5ed15c6e187e77e9aee88184c21f4f2182ab5827cb3b7e07fbedcd63f03300a2646970667358221220b233d330576580329474288ccd4fe9414ae9f2444259ef86b6771880c65568e264736f6c63430008180033",
  "linkReferences": {},
  "deployedLinkReferences": {}
}