{
  "_format": "hh-sol-artifact-1",
  "contractName": "EIP712Example",
  "sourceName": "contracts/EIP712Example.sol",
  "abi": [
    {
      "inputs": [],
      "stateMutability": "nonpayable",
      "type": "constructor"
    },
    {
      "inputs": [
        {
          "internalType": "uint256",
          "name": "chainId",
          "type": "uint256"
        },
        {
          "internalType": "address",
          "name": "verifyingContract",
          "type": "address"
        },
        {
          "internalType": "bytes32",
          "name": "salt",
          "type": "bytes32"
        }
      ],
      "name": "VerifyFail",
      "type": "error"
    },
    {
      "anonymous": false,
      "inputs": [
        {
          "indexed": true,
          "internalType": "address",
          "name": "_from",
          "type": "address"
        }
      ],
      "name": "AddressVerified",
      "type": "event"
    },
    {
      "inputs": [],
      "name": "getBalance",
      "outputs": [
        {
          "internalType": "uint256",
          "name": "",
          "type": "uint256"
        }
      ],
      "stateMutability": "view",
      "type": "function"
    },
    {
      "inputs": [
        {
          "components": [
            {
              "internalType": "string",
              "name": "message",
              "type": "string"
            },
            {
              "internalType": "uint256",
              "name": "value",
              "type": "uint256"
            },
            {
              "internalType": "address",
              "name": "from",
              "type": "address"
            },
            {
              "internalType": "address",
              "name": "to",
              "type": "address"
            }
          ],
          "internalType": "struct ExampleMessage",
          "name": "message",
          "type": "tuple"
        },
        {
          "internalType": "uint8",
          "name": "v",
          "type": "uint8"
        },
        {
          "internalType": "bytes32",
          "name": "r",
          "type": "bytes32"
        },
        {
          "internalType": "bytes32",
          "name": "s",
          "type": "bytes32"
        }
      ],
      "name": "verifyMessage",
      "outputs": [],
      "stateMutability": "nonpayable",
      "type": "function"
    },
    {
      "stateMutability": "payable",
      "type": "receive"
    }
  ],
  "bytecode": "0x608060405234801561001057600080fd5b506040805160e081018252600d60a082019081526c4549503731324578616d706c6560981b60c083015281528151808301835260018152603160f81b60208281019190915282015246918101919091523060608201526a1c1cd95d591bcb5d195e1d60aa1b60808201526100839061008b565b600055610133565b60007fd87cd6ef79d4e2b95e15ce8abf732db51ec771f1ca2edccf22a46c729ac56472826000015180519060200120836020015180519060200120846040015185606001518660800151604051602001610116969594939291909586526020860194909452604085019290925260608401526001600160a01b0316608083015260a082015260c00190565b604051602081830303815290604052805190602001209050919050565b61055a806101426000396000f3fe60806040526004361061002d5760003560e01c806312065fe0146100395780639fd7124e1461005957600080fd5b3661003457005b600080fd5b34801561004557600080fd5b504760405190815260200160405180910390f35b34801561006557600080fd5b506100796100743660046103d3565b61007b565b005b60008054610088866102b2565b60405161190160f01b60208201526022810192909252604282015260620160408051601f1981840301815291815281516020928301206000818152600190935291205490915060ff16156101195760405162461bcd60e51b815260206004820152601360248201527214da59db985d1d5c99481b9bdd081d985b1a59606a1b60448201526064015b60405180910390fd5b600047116101695760405162461bcd60e51b815260206004820152601f60248201527f416d6f756e74206578636565647320636f6e74726163742062616c616e6365006044820152606401610110565b6040805160008082526020820180845284905260ff871692820192909252606081018590526080810184905260019060a0016020604051602081039080840390855afa1580156101bd573d6000803e3d6000fd5b50505060206040510351905085604001516001600160a01b0316816001600160a01b03161461021b5760405163263b34e960e11b81524660048201523060248201526a1c1cd95d591bcb5d195e1d60aa1b6044820152606401610110565b6000828152600160208181526040808420805460ff191690931790925560608901519089015191516001600160a01b039091169282156108fc02929190818181858888f19350505050158015610275573d6000803e3d6000fd5b506040516001600160a01b038216907fa73de5a14448d1018a70f5aef0b1eb8f27129ccb6857389295be0104a4fe059f90600090a2505050505050565b60006040518060800160405280604481526020016104e1604491398051602091820120835180519083012084830151604080870151606080890151835197880196909652918601939093528401526001600160a01b0390811660808401521660a082015260c001604051602081830303815290604052805190602001209050919050565b634e487b7160e01b600052604160045260246000fd5b6040516080810167ffffffffffffffff8111828210171561036f5761036f610336565b60405290565b604051601f8201601f1916810167ffffffffffffffff8111828210171561039e5761039e610336565b604052919050565b80356001600160a01b03811681146103bd57600080fd5b919050565b803560ff811681146103bd57600080fd5b600080600080608085870312156103e957600080fd5b843567ffffffffffffffff8082111561040157600080fd5b908601906080828903121561041557600080fd5b61041d61034c565b82358281111561042c57600080fd5b8301601f81018a1361043d57600080fd5b803560208482111561045157610451610336565b610463601f8301601f19168201610375565b94508185528b8183850101111561047957600080fd5b8181840182870137600081838701015284845280860135818501526104a0604087016103a6565b60408501526104b1606087016103a6565b60608501528399506104c4818c016103c2565b999c999b5050505060408801359760600135969550505050505056fe4578616d706c654d65737361676528737472696e67206d6573736167652c75696e743235362076616c75652c616464726573732066726f6d2c6164647265737320746f29a2646970667358221220655bd6e9dba51570ad545bd0886e1b8f0c08be561449b285202debf42095d4b764736f6c63430008180033",
  "linkReferences": {},
  "deployedLinkReferences": {}
}