{
  "_format": "hh-sol-artifact-1",
  "contractName": "DMail",
  "sourceName": "contracts/DMail.sol",
  "abi": [
    {
      "inputs": [],
      "stateMutability": "nonpayable",
      "type": "constructor"
    },
    {
      "inputs": [],
      "name": "InvalidShortString",
      "type": "error"
    },
    {
      "inputs": [],
      "name": "ReentrancyGuardReentrantCall",
      "type": "error"
    },
    {
      "inputs": [
        {
          "internalType": "string",
          "name": "str",
          "type": "string"
        }
      ],
      "name": "StringTooLong",
      "type": "error"
    },
    {
      "inputs": [
        {
          "internalType": "address",
          "name": "",
          "type": "address"
        }
      ],
      "name": "UnauthorizedAccess",
      "type": "error"
    },
    {
      "anonymous": false,
      "inputs": [],
      "name": "EIP712DomainChanged",
      "type": "event"
    },
    {
      "inputs": [
        {
          "components": [
            {
              "internalType": "address",
              "name": "to",
              "type": "address"
            },
            {
              "internalType": "string",
              "name": "phrase",
              "type": "string"
            },
            {
              "internalType": "uint256",
              "name": "amount",
              "type": "uint256"
            },
            {
              "internalType": "address",
              "name": "from",
              "type": "address"
            }
          ],
          "internalType": "struct DMail.Claim",
          "name": "_claim",
          "type": "tuple"
        },
        {
          "internalType": "uint8",
          "name": "v",
          "type": "uint8"
        },
        {
          "internalType": "bytes32",
          "name": "r",
          "type": "bytes32"
        },
        {
          "internalType": "bytes32",
          "name": "s",
          "type": "bytes32"
        }
      ],
      "name": "claim",
      "outputs": [],
      "stateMutability": "nonpayable",
      "type": "function"
    },
    {
      "inputs": [],
      "name": "eip712Domain",
      "outputs": [
        {
          "internalType": "bytes1",
          "name": "fields",
          "type": "bytes1"
        },
        {
          "internalType": "string",
          "name": "name",
          "type": "string"
        },
        {
          "internalType": "string",
          "name": "version",
          "type": "string"
        },
        {
          "internalType": "uint256",
          "name": "chainId",
          "type": "uint256"
        },
        {
          "internalType": "address",
          "name": "verifyingContract",
          "type": "address"
        },
        {
          "internalType": "bytes32",
          "name": "salt",
          "type": "bytes32"
        },
        {
          "internalType": "uint256[]",
          "name": "extensions",
          "type": "uint256[]"
        }
      ],
      "stateMutability": "view",
      "type": "function"
    },
    {
      "inputs": [],
      "name": "getBalance",
      "outputs": [
        {
          "internalType": "uint256",
          "name": "",
          "type": "uint256"
        }
      ],
      "stateMutability": "view",
      "type": "function"
    },
    {
      "stateMutability": "payable",
      "type": "receive"
    }
  ],
  "bytecode": "0x6101606040523480156200001257600080fd5b50604080518082018252600d81526c1113585a5b10dbdb9d1c9858dd609a1b602080830191909152825180840190935260018352603160f81b90830152906200005d82600062000110565b610120526200006e81600162000110565b61014052815160208084019190912060e052815190820120610100524660a052620000fc60e05161010051604080517f8b73c3c69bb8fe3d512ecc4cf759cc79239f7b179b0ffacaa9a75d522b39400f60208201529081019290925260608201524660808201523060a082015260009060c00160405160208183030381529060405280519060200120905090565b60805250503060c05260016002556200037e565b60006020835110156200013057620001288362000149565b905062000143565b816200013d84826200023c565b5060ff90505b92915050565b600080829050601f8151111562000180578260405163305a27a960e01b815260040162000177919062000308565b60405180910390fd5b80516200018d8262000359565b179392505050565b634e487b7160e01b600052604160045260246000fd5b600181811c90821680620001c057607f821691505b602082108103620001e157634e487b7160e01b600052602260045260246000fd5b50919050565b601f82111562000237576000816000526020600020601f850160051c81016020861015620002125750805b601f850160051c820191505b8181101562000233578281556001016200021e565b5050505b505050565b81516001600160401b0381111562000258576200025862000195565b6200027081620002698454620001ab565b84620001e7565b602080601f831160018114620002a857600084156200028f5750858301515b600019600386901b1c1916600185901b17855562000233565b600085815260208120601f198616915b82811015620002d957888601518255948401946001909101908401620002b8565b5085821015620002f85787850151600019600388901b60f8161c191681555b5050505050600190811b01905550565b60006020808352835180602085015260005b8181101562000338578581018301518582016040015282016200031a565b506000604082860101526040601f19601f8301168501019250505092915050565b80516020808301519190811015620001e15760001960209190910360031b1b16919050565b60805160a05160c05160e0516101005161012051610140516108e2620003d960003960006105650152600061053801526000610422015260006103fa015260006103550152600061037f015260006103a901526108e26000f3fe6080604052600436106100385760003560e01c806312065fe0146100445780631ee686591461006457806384b0196e1461008657600080fd5b3661003f57005b600080fd5b34801561005057600080fd5b506040514781526020015b60405180910390f35b34801561007057600080fd5b5061008461007f36600461069b565b6100ae565b005b34801561009257600080fd5b5061009b6102da565b60405161005b979695949392919061074b565b6100b6610320565b60006100c0610348565b6100c986610478565b60405161190160f01b60208201526022810192909252604282015260620160408051601f1981840301815291815281516020928301206000818152600390935291205490915060ff16156101585760405162461bcd60e51b815260206004820152601160248201527014da59db985d1d5c9948195e1c1a5c9959607a1b60448201526064015b60405180910390fd5b6040805160008082526020820180845284905260ff871692820192909252606081018590526080810184905260019060a0016020604051602081039080840390855afa1580156101ac573d6000803e3d6000fd5b5050604051601f19015191506101ca905060808701606088016107e4565b6001600160a01b0316816001600160a01b03161461020657604051633733be5960e21b81526001600160a01b038216600482015260240161014f565b61021360208701876107e4565b6001600160a01b0316336001600160a01b03161461027e5760405162461bcd60e51b815260206004820152602260248201527f556e617574686f72697a656420616363657373202877726f6e672073656e6465604482015261722960f01b606482015260840161014f565b600082815260036020526040808220805460ff19166001179055805133929189013580156108fc0292909190818181858888f193505050501580156102c7573d6000803e3d6000fd5b5050506102d46001600255565b50505050565b6000606080600080600060606102ee610531565b6102f661055e565b60408051600080825260208201909252600f60f81b9b939a50919850469750309650945092509050565b600280540361034257604051633ee5aeb560e01b815260040160405180910390fd5b60028055565b6000306001600160a01b037f0000000000000000000000000000000000000000000000000000000000000000161480156103a157507f000000000000000000000000000000000000000000000000000000000000000046145b156103cb57507f000000000000000000000000000000000000000000000000000000000000000090565b610473604080517f8b73c3c69bb8fe3d512ecc4cf759cc79239f7b179b0ffacaa9a75d522b39400f60208201527f0000000000000000000000000000000000000000000000000000000000000000918101919091527f000000000000000000000000000000000000000000000000000000000000000060608201524660808201523060a082015260009060c00160405160208183030381529060405280519060200120905090565b905090565b60007f75bc58f44241fb6b51d8efce894eb9a5e7018b0edc079f37f442a3264dd1eb256104a860208401846107e4565b6104b56020850185610814565b6040516104c3929190610862565b604051809103902084604001358560600160208101906104e391906107e4565b6040805160208101969096526001600160a01b0394851690860152606085019290925260808401521660a082015260c001604051602081830303815290604052805190602001209050919050565b60606104737f00000000000000000000000000000000000000000000000000000000000000006000610587565b60606104737f000000000000000000000000000000000000000000000000000000000000000060015b606060ff83146105a15761059a83610634565b905061062e565b8180546105ad90610872565b80601f01602080910402602001604051908101604052809291908181526020018280546105d990610872565b80156106265780601f106105fb57610100808354040283529160200191610626565b820191906000526020600020905b81548152906001019060200180831161060957829003601f168201915b505050505090505b92915050565b6060600061064183610673565b604080516020808252818301909252919250600091906020820181803683375050509182525060208101929092525090565b600060ff8216601f81111561062e57604051632cd44ac360e21b815260040160405180910390fd5b600080600080608085870312156106b157600080fd5b843567ffffffffffffffff8111156106c857600080fd5b8501608081880312156106da57600080fd5b9350602085013560ff811681146106f057600080fd5b93969395505050506040820135916060013590565b6000815180845260005b8181101561072b5760208185018101518683018201520161070f565b506000602082860101526020601f19601f83011685010191505092915050565b60ff60f81b881681526000602060e0602084015261076c60e084018a610705565b838103604085015261077e818a610705565b606085018990526001600160a01b038816608086015260a0850187905284810360c08601528551808252602080880193509091019060005b818110156107d2578351835292840192918401916001016107b6565b50909c9b505050505050505050505050565b6000602082840312156107f657600080fd5b81356001600160a01b038116811461080d57600080fd5b9392505050565b6000808335601e1984360301811261082b57600080fd5b83018035915067ffffffffffffffff82111561084657600080fd5b60200191503681900382131561085b57600080fd5b9250929050565b8183823760009101908152919050565b600181811c9082168061088657607f821691505b6020821081036108a657634e487b7160e01b600052602260045260246000fd5b5091905056fea2646970667358221220c3c5bf05da8277c5fb1ca935f82f829f09cb9dbc238e30714d3e9f19eee9390464736f6c63430008180033",
  "linkReferences": {},
  "deployedLinkReferences": {}
}